{
  "contractName": "Exchange",
  "abi": [
    {
      "constant": true,
      "inputs": [],
      "name": "trade",
      "outputs": [
        {
          "name": "",
          "type": "bool"
        }
      ],
      "payable": false,
      "stateMutability": "view",
      "type": "function"
    },
    {
      "constant": true,
      "inputs": [],
      "name": "owner",
      "outputs": [
        {
          "name": "",
          "type": "address"
        }
      ],
      "payable": false,
      "stateMutability": "view",
      "type": "function"
    },
    {
      "constant": true,
      "inputs": [
        {
          "name": "",
          "type": "address"
        }
      ],
      "name": "reserves",
      "outputs": [
        {
          "name": "",
          "type": "address"
        }
      ],
      "payable": false,
      "stateMutability": "view",
      "type": "function"
    },
    {
      "constant": true,
      "inputs": [],
      "name": "NATIVE_TOKEN_ADDRESS",
      "outputs": [
        {
          "name": "",
          "type": "address"
        }
      ],
      "payable": false,
      "stateMutability": "view",
      "type": "function"
    },
    {
      "inputs": [],
      "payable": false,
      "stateMutability": "nonpayable",
      "type": "constructor"
    },
    {
      "payable": true,
      "stateMutability": "payable",
      "type": "fallback"
    },
    {
      "constant": false,
      "inputs": [
        {
          "name": "reserve",
          "type": "address"
        },
        {
          "name": "token",
          "type": "address"
        },
        {
          "name": "isAdd",
          "type": "bool"
        }
      ],
      "name": "addReserve",
      "outputs": [],
      "payable": false,
      "stateMutability": "nonpayable",
      "type": "function"
    },
    {
      "constant": true,
      "inputs": [
        {
          "name": "srcToken",
          "type": "address"
        },
        {
          "name": "destToken",
          "type": "address"
        },
        {
          "name": "srcAmount",
          "type": "uint256"
        }
      ],
      "name": "getExchangeRate",
      "outputs": [
        {
          "name": "",
          "type": "uint256"
        }
      ],
      "payable": false,
      "stateMutability": "view",
      "type": "function"
    },
    {
      "constant": false,
      "inputs": [
        {
          "name": "srcToken",
          "type": "address"
        },
        {
          "name": "destToken",
          "type": "address"
        },
        {
          "name": "srcAmount",
          "type": "uint256"
        }
      ],
      "name": "exchange",
      "outputs": [],
      "payable": true,
      "stateMutability": "payable",
      "type": "function"
    }
  ],
  "bytecode": "0x608060405234801561001057600080fd5b50336000806101000a81548173ffffffffffffffffffffffffffffffffffffffff021916908373ffffffffffffffffffffffffffffffffffffffff1602179055506001600060146101000a81548160ff02191690831515021790555061205f8061007b6000396000f300608060405260043610610083576000357c0100000000000000000000000000000000000000000000000000000000900463ffffffff1680631f0ba6c9146100855780636b441d8a146100b45780638da5cb5b14610135578063969e37561461018c5780639e3f3d48146101ec578063d66bd5241461025b578063df2ebdbb146102de575b005b34801561009157600080fd5b5061009a610335565b604051808215151515815260200191505060405180910390f35b3480156100c057600080fd5b5061011f600480360381019080803573ffffffffffffffffffffffffffffffffffffffff169060200190929190803573ffffffffffffffffffffffffffffffffffffffff16906020019092919080359060200190929190505050610348565b6040518082815260200191505060405180910390f35b34801561014157600080fd5b5061014a610970565b604051808273ffffffffffffffffffffffffffffffffffffffff1673ffffffffffffffffffffffffffffffffffffffff16815260200191505060405180910390f35b6101ea600480360381019080803573ffffffffffffffffffffffffffffffffffffffff169060200190929190803573ffffffffffffffffffffffffffffffffffffffff16906020019092919080359060200190929190505050610995565b005b3480156101f857600080fd5b50610259600480360381019080803573ffffffffffffffffffffffffffffffffffffffff169060200190929190803573ffffffffffffffffffffffffffffffffffffffff169060200190929190803515159060200190929190505050611e0d565b005b34801561026757600080fd5b5061029c600480360381019080803573ffffffffffffffffffffffffffffffffffffffff169060200190929190505050611fe8565b604051808273ffffffffffffffffffffffffffffffffffffffff1673ffffffffffffffffffffffffffffffffffffffff16815260200191505060405180910390f35b3480156102ea57600080fd5b506102f361201b565b604051808273ffffffffffffffffffffffffffffffffffffffff1673ffffffffffffffffffffffffffffffffffffffff16815260200191505060405180910390f35b600060149054906101000a900460ff1681565b6000806000806000600160008973ffffffffffffffffffffffffffffffffffffffff1673ffffffffffffffffffffffffffffffffffffffff16815260200190815260200160002060009054906101000a900473ffffffffffffffffffffffffffffffffffffffff169350600160008873ffffffffffffffffffffffffffffffffffffffff1673ffffffffffffffffffffffffffffffffffffffff16815260200190815260200160002060009054906101000a900473ffffffffffffffffffffffffffffffffffffffff1692508673ffffffffffffffffffffffffffffffffffffffff168873ffffffffffffffffffffffffffffffffffffffff16141561045857670de0b6b3a76400009450610965565b600073ffffffffffffffffffffffffffffffffffffffff168473ffffffffffffffffffffffffffffffffffffffff16141580156104c25750600073ffffffffffffffffffffffffffffffffffffffff168373ffffffffffffffffffffffffffffffffffffffff1614155b15610656578373ffffffffffffffffffffffffffffffffffffffff166377ed0ad66000886040518363ffffffff167c0100000000000000000000000000000000000000000000000000000000028152600401808315151515815260200182815260200192505050602060405180830381600087803b15801561054357600080fd5b505af1158015610557573d6000803e3d6000fd5b505050506040513d602081101561056d57600080fd5b810190808051906020019092919050505091508273ffffffffffffffffffffffffffffffffffffffff166377ed0ad66001886040518363ffffffff167c0100000000000000000000000000000000000000000000000000000000028152600401808315151515815260200182815260200192505050602060405180830381600087803b1580156105fc57600080fd5b505af1158015610610573d6000803e3d6000fd5b505050506040513d602081101561062657600080fd5b8101908080519060200190929190505050905081670de0b6b3a7640000820281151561064e57fe5b049450610965565b600073ffffffffffffffffffffffffffffffffffffffff168473ffffffffffffffffffffffffffffffffffffffff16141580156106d2575073eeeeeeeeeeeeeeeeeeeeeeeeeeeeeeeeeeeeeeee73ffffffffffffffffffffffffffffffffffffffff168773ffffffffffffffffffffffffffffffffffffffff16145b156107ab578373ffffffffffffffffffffffffffffffffffffffff166377ed0ad66000886040518363ffffffff167c0100000000000000000000000000000000000000000000000000000000028152600401808315151515815260200182815260200192505050602060405180830381600087803b15801561075357600080fd5b505af1158015610767573d6000803e3d6000fd5b505050506040513d602081101561077d57600080fd5b8101908080519060200190929190505050915081670de0b6b3a76400008115156107a357fe5b049450610965565b73eeeeeeeeeeeeeeeeeeeeeeeeeeeeeeeeeeeeeeee73ffffffffffffffffffffffffffffffffffffffff168873ffffffffffffffffffffffffffffffffffffffff161480156108275750600073ffffffffffffffffffffffffffffffffffffffff168373ffffffffffffffffffffffffffffffffffffffff1614155b156108f7578273ffffffffffffffffffffffffffffffffffffffff166377ed0ad66001886040518363ffffffff167c0100000000000000000000000000000000000000000000000000000000028152600401808315151515815260200182815260200192505050602060405180830381600087803b1580156108a857600080fd5b505af11580156108bc573d6000803e3d6000fd5b505050506040513d60208110156108d257600080fd5b81019080805190602001909291905050509050670de0b6b3a764000081029450610965565b6040517f08c379a00000000000000000000000000000000000000000000000000000000081526004018080602001828103825260118152602001807f72657365727665206e6f7420666f756e6400000000000000000000000000000081525060200191505060405180910390fd5b505050509392505050565b6000809054906101000a900473ffffffffffffffffffffffffffffffffffffffff1681565b600080600080600080600160008a73ffffffffffffffffffffffffffffffffffffffff1673ffffffffffffffffffffffffffffffffffffffff16815260200190815260200160002060009054906101000a900473ffffffffffffffffffffffffffffffffffffffff169150600160008973ffffffffffffffffffffffffffffffffffffffff1673ffffffffffffffffffffffffffffffffffffffff16815260200190815260200160002060009054906101000a900473ffffffffffffffffffffffffffffffffffffffff1690508773ffffffffffffffffffffffffffffffffffffffff168973ffffffffffffffffffffffffffffffffffffffff1614151515610b2c576040517f08c379a00000000000000000000000000000000000000000000000000000000081526004018080602001828103825260288152602001807f737263546f6b656e20616e642064657374546f6b656e206d757374206265206481526020017f6966666572656e7400000000000000000000000000000000000000000000000081525060400191505060405180910390fd5b73eeeeeeeeeeeeeeeeeeeeeeeeeeeeeeeeeeeeeeee73ffffffffffffffffffffffffffffffffffffffff168973ffffffffffffffffffffffffffffffffffffffff161415610f7a578634141515610beb576040517f08c379a00000000000000000000000000000000000000000000000000000000081526004018080602001828103825260168152602001807f6d73672e76616c756520213d20737263416d6f756e740000000000000000000081525060200191505060405180910390fd5b600073ffffffffffffffffffffffffffffffffffffffff168173ffffffffffffffffffffffffffffffffffffffff1614151515610c90576040517f08c379a00000000000000000000000000000000000000000000000000000000081526004018080602001828103825260168152602001807f646573742072657365727665206e6f7420666f756e640000000000000000000081525060200191505060405180910390fd5b8794508073ffffffffffffffffffffffffffffffffffffffff1663874fc5f8346001346040518463ffffffff167c01000000000000000000000000000000000000000000000000000000000281526004018083151515158152602001828152602001925050506020604051808303818588803b158015610d0f57600080fd5b505af1158015610d23573d6000803e3d6000fd5b50505050506040513d6020811015610d3a57600080fd5b81019080805190602001909291905050509250828573ffffffffffffffffffffffffffffffffffffffff1663dd62ed3e83306040518363ffffffff167c0100000000000000000000000000000000000000000000000000000000028152600401808373ffffffffffffffffffffffffffffffffffffffff1673ffffffffffffffffffffffffffffffffffffffff1681526020018273ffffffffffffffffffffffffffffffffffffffff1673ffffffffffffffffffffffffffffffffffffffff16815260200192505050602060405180830381600087803b158015610e1d57600080fd5b505af1158015610e31573d6000803e3d6000fd5b505050506040513d6020811015610e4757600080fd5b810190808051906020019092919050505010151515610e6257fe5b8473ffffffffffffffffffffffffffffffffffffffff166323b872dd8233866040518463ffffffff167c0100000000000000000000000000000000000000000000000000000000028152600401808473ffffffffffffffffffffffffffffffffffffffff1673ffffffffffffffffffffffffffffffffffffffff1681526020018373ffffffffffffffffffffffffffffffffffffffff1673ffffffffffffffffffffffffffffffffffffffff1681526020018281526020019350505050602060405180830381600087803b158015610f3957600080fd5b505af1158015610f4d573d6000803e3d6000fd5b505050506040513d6020811015610f6357600080fd5b810190808051906020019092919050505050611e02565b73eeeeeeeeeeeeeeeeeeeeeeeeeeeeeeeeeeeeeeee73ffffffffffffffffffffffffffffffffffffffff168873ffffffffffffffffffffffffffffffffffffffff1614156116a75760003414151561103a576040517f08c379a000000000000000000000000000000000000000000000000000000000815260040180806020018281038252600e8152602001807f6d73672e76616c756520213d203000000000000000000000000000000000000081525060200191505060405180910390fd5b600073ffffffffffffffffffffffffffffffffffffffff168273ffffffffffffffffffffffffffffffffffffffff16141515156110df576040517f08c379a00000000000000000000000000000000000000000000000000000000081526004018080602001828103825260158152602001807f7372632072657365727665206e6f7420666f756e64000000000000000000000081525060200191505060405180910390fd5b889550868673ffffffffffffffffffffffffffffffffffffffff1663dd62ed3e33306040518363ffffffff167c0100000000000000000000000000000000000000000000000000000000028152600401808373ffffffffffffffffffffffffffffffffffffffff1673ffffffffffffffffffffffffffffffffffffffff1681526020018273ffffffffffffffffffffffffffffffffffffffff1673ffffffffffffffffffffffffffffffffffffffff16815260200192505050602060405180830381600087803b1580156111b257600080fd5b505af11580156111c6573d6000803e3d6000fd5b505050506040513d60208110156111dc57600080fd5b810190808051906020019092919050505010151515611263576040517f08c379a00000000000000000000000000000000000000000000000000000000081526004018080602001828103825260148152602001807f616c6c6f77616e6365206e6f7420656e6f75676800000000000000000000000081525060200191505060405180910390fd5b8573ffffffffffffffffffffffffffffffffffffffff166323b872dd33308a6040518463ffffffff167c0100000000000000000000000000000000000000000000000000000000028152600401808473ffffffffffffffffffffffffffffffffffffffff1673ffffffffffffffffffffffffffffffffffffffff1681526020018373ffffffffffffffffffffffffffffffffffffffff1673ffffffffffffffffffffffffffffffffffffffff1681526020018281526020019350505050602060405180830381600087803b15801561133a57600080fd5b505af115801561134e573d6000803e3d6000fd5b505050506040513d602081101561136457600080fd5b810190808051906020019092919050505050868673ffffffffffffffffffffffffffffffffffffffff166370a08231306040518263ffffffff167c0100000000000000000000000000000000000000000000000000000000028152600401808273ffffffffffffffffffffffffffffffffffffffff1673ffffffffffffffffffffffffffffffffffffffff168152602001915050602060405180830381600087803b15801561141257600080fd5b505af1158015611426573d6000803e3d6000fd5b505050506040513d602081101561143c57600080fd5b8101908080519060200190929190505050101515156114c3576040517f08c379a00000000000000000000000000000000000000000000000000000000081526004018080602001828103825260128152602001807f62616c616e6365206e6f7420656e6f756768000000000000000000000000000081525060200191505060405180910390fd5b8573ffffffffffffffffffffffffffffffffffffffff1663095ea7b383896040518363ffffffff167c0100000000000000000000000000000000000000000000000000000000028152600401808373ffffffffffffffffffffffffffffffffffffffff1673ffffffffffffffffffffffffffffffffffffffff16815260200182815260200192505050602060405180830381600087803b15801561156657600080fd5b505af115801561157a573d6000803e3d6000fd5b505050506040513d602081101561159057600080fd5b8101908080519060200190929190505050508173ffffffffffffffffffffffffffffffffffffffff1663874fc5f86000896040518363ffffffff167c0100000000000000000000000000000000000000000000000000000000028152600401808315151515815260200182815260200192505050602060405180830381600087803b15801561161e57600080fd5b505af1158015611632573d6000803e3d6000fd5b505050506040513d602081101561164857600080fd5b810190808051906020019092919050505093503373ffffffffffffffffffffffffffffffffffffffff166108fc859081150290604051600060405180830381858888f193505050501580156116a1573d6000803e3d6000fd5b50611e01565b600073ffffffffffffffffffffffffffffffffffffffff168273ffffffffffffffffffffffffffffffffffffffff16141580156117115750600073ffffffffffffffffffffffffffffffffffffffff168173ffffffffffffffffffffffffffffffffffffffff1614155b15611d925760003414151561178e576040517f08c379a000000000000000000000000000000000000000000000000000000000815260040180806020018281038252600e8152602001807f6d73672e76616c756520213d203000000000000000000000000000000000000081525060200191505060405180910390fd5b8895508794508573ffffffffffffffffffffffffffffffffffffffff166323b872dd33308a6040518463ffffffff167c0100000000000000000000000000000000000000000000000000000000028152600401808473ffffffffffffffffffffffffffffffffffffffff1673ffffffffffffffffffffffffffffffffffffffff1681526020018373ffffffffffffffffffffffffffffffffffffffff1673ffffffffffffffffffffffffffffffffffffffff1681526020018281526020019350505050602060405180830381600087803b15801561186b57600080fd5b505af115801561187f573d6000803e3d6000fd5b505050506040513d602081101561189557600080fd5b8101908080519060200190929190505050508573ffffffffffffffffffffffffffffffffffffffff1663095ea7b383896040518363ffffffff167c0100000000000000000000000000000000000000000000000000000000028152600401808373ffffffffffffffffffffffffffffffffffffffff1673ffffffffffffffffffffffffffffffffffffffff16815260200182815260200192505050602060405180830381600087803b15801561194a57600080fd5b505af115801561195e573d6000803e3d6000fd5b505050506040513d602081101561197457600080fd5b8101908080519060200190929190505050508173ffffffffffffffffffffffffffffffffffffffff1663874fc5f86000896040518363ffffffff167c0100000000000000000000000000000000000000000000000000000000028152600401808315151515815260200182815260200192505050602060405180830381600087803b158015611a0257600080fd5b505af1158015611a16573d6000803e3d6000fd5b505050506040513d6020811015611a2c57600080fd5b810190808051906020019092919050505093508073ffffffffffffffffffffffffffffffffffffffff1663874fc5f8856001876040518463ffffffff167c01000000000000000000000000000000000000000000000000000000000281526004018083151515158152602001828152602001925050506020604051808303818588803b158015611abb57600080fd5b505af1158015611acf573d6000803e3d6000fd5b50505050506040513d6020811015611ae657600080fd5b81019080805190602001909291905050509250828573ffffffffffffffffffffffffffffffffffffffff1663dd62ed3e83306040518363ffffffff167c0100000000000000000000000000000000000000000000000000000000028152600401808373ffffffffffffffffffffffffffffffffffffffff1673ffffffffffffffffffffffffffffffffffffffff1681526020018273ffffffffffffffffffffffffffffffffffffffff1673ffffffffffffffffffffffffffffffffffffffff16815260200192505050602060405180830381600087803b158015611bc957600080fd5b505af1158015611bdd573d6000803e3d6000fd5b505050506040513d6020811015611bf357600080fd5b810190808051906020019092919050505010151515611c7a576040517f08c379a00000000000000000000000000000000000000000000000000000000081526004018080602001828103825260148152602001807f6e6f7420656e6f75676820616c6c6f77616e636500000000000000000000000081525060200191505060405180910390fd5b8473ffffffffffffffffffffffffffffffffffffffff166323b872dd8233866040518463ffffffff167c0100000000000000000000000000000000000000000000000000000000028152600401808473ffffffffffffffffffffffffffffffffffffffff1673ffffffffffffffffffffffffffffffffffffffff1681526020018373ffffffffffffffffffffffffffffffffffffffff1673ffffffffffffffffffffffffffffffffffffffff1681526020018281526020019350505050602060405180830381600087803b158015611d5157600080fd5b505af1158015611d65573d6000803e3d6000fd5b505050506040513d6020811015611d7b57600080fd5b810190808051906020019092919050505050611e00565b6040517f08c379a00000000000000000000000000000000000000000000000000000000081526004018080602001828103825260118152602001807f72657365727665206e6f7420666f756e6400000000000000000000000000000081525060200191505060405180910390fd5b5b5b505050505050505050565b6000809054906101000a900473ffffffffffffffffffffffffffffffffffffffff1673ffffffffffffffffffffffffffffffffffffffff163373ffffffffffffffffffffffffffffffffffffffff16141515611ef7576040517f08c379a00000000000000000000000000000000000000000000000000000000081526004018080602001828103825260218152602001807f6f6e6c79206f776e65722063616e206164642f72656d6f76652072657365727681526020017f650000000000000000000000000000000000000000000000000000000000000081525060400191505060405180910390fd5b8015611f805782600160008473ffffffffffffffffffffffffffffffffffffffff1673ffffffffffffffffffffffffffffffffffffffff16815260200190815260200160002060006101000a81548173ffffffffffffffffffffffffffffffffffffffff021916908373ffffffffffffffffffffffffffffffffffffffff160217905550611fe3565b600160008373ffffffffffffffffffffffffffffffffffffffff1673ffffffffffffffffffffffffffffffffffffffff16815260200190815260200160002060006101000a81549073ffffffffffffffffffffffffffffffffffffffff02191690555b505050565b60016020528060005260406000206000915054906101000a900473ffffffffffffffffffffffffffffffffffffffff1681565b73eeeeeeeeeeeeeeeeeeeeeeeeeeeeeeeeeeeeeeee815600a165627a7a7230582055df29c8a76addda0a37ffd82f609bdc61270876bc7dcd4372f8c3484baf1e070029",
  "source": "// SPDX-License-Identifier: MIT\npragma solidity ^0.4.17;\n\nimport \"./Reserve.sol\";\nimport \"./ERC20.sol\";\nimport \"./Utils.sol\";\n\n/**\n    * @title Exchange\n    * @dev Exchange contract for bridging between Reserve contract and User's wallet\n */\ncontract Exchange {\n    /// @dev native token address: can be ETH or TOMO\n    address public constant NATIVE_TOKEN_ADDRESS = address(0xEeeeeEeeeEeEeeEeEeEeeEEEeeeeEeeeeeeeEEeE);\n\n    /// @dev Exchange owner: the address that can call addReserve and removeReserve\n    address public owner;\n    bool public trade;\n\n    /// @dev Mapping from token to reserve\n    mapping (address => Reserve) public reserves;\n\n    /**\n      * @dev Exchange constructor\n     */\n    constructor() {\n        owner = msg.sender;\n        trade = true;\n    }\n\n    /**\n      * @dev Add or remove reserve for a token\n      * only owner can call this function\n      * @param reserve reserve address\n      * @param token supported token address\n      * @param isAdd true if add, false if remove\n     */\n    function addReserve(address reserve, address token, bool isAdd) public {\n        require(msg.sender == owner, \"only owner can add/remove reserve\");\n        if (isAdd) {\n            reserves[token] = Reserve(reserve);  // look up the reserve contract object from its address\n        } else {\n            delete reserves[token];\n        }\n    }\n\n    /**\n      * @dev Get exchange rate * 1e18 between 2 tokens\n      * @param srcToken source token address\n      * @param destToken destination token address\n      * @param srcAmount source amount\n      * @return exchangeRate exchange rate * 10^18\n     */\n    function getExchangeRate(address srcToken, address destToken, uint256 srcAmount) public view returns (uint256) {\n        Reserve srcReserve = reserves[srcToken];\n        Reserve destReserve = reserves[destToken];\n        uint256 srcRate;\n        uint256 destRate;\n\n        if (srcToken == destToken) {\n            return 1e18;\n        } else if (srcReserve != address(0) && destReserve != address(0)) {\n            srcRate = srcReserve.getExchangeRate(false, srcAmount);\n            destRate = destReserve.getExchangeRate(true, srcAmount);\n            return destRate * 1e18 / srcRate;\n        } else if (srcReserve != address(0) && destToken == NATIVE_TOKEN_ADDRESS) {\n            // selling token for ETH\n            srcRate = srcReserve.getExchangeRate(false, srcAmount);\n            return 1e18 / srcRate;\n        } else if (srcToken == NATIVE_TOKEN_ADDRESS && destReserve != address(0)) {\n            // buying token with ETH\n            destRate = destReserve.getExchangeRate(true, srcAmount);\n            return destRate * 1e18;\n        } else {\n            revert(\"reserve not found\");\n        }\n    }\n\n    /**\n      * @dev Exchange tokens\n      * @param srcToken source token address\n      * @param destToken destination token address\n      * @param srcAmount source amount\n     */\n    function exchange(address srcToken, address destToken, uint256 srcAmount) public payable {\n        ERC20 src;\n        ERC20 dest;\n        uint256 sendBackEtherAmount;\n        uint256 outTokenAmount;\n\n        Reserve srcReserve = reserves[srcToken];\n        Reserve destReserve = reserves[destToken];\n\n        require(srcToken != destToken, \"srcToken and destToken must be different\");\n        if (srcToken == NATIVE_TOKEN_ADDRESS) {\n            require(msg.value == srcAmount, \"msg.value != srcAmount\");\n            require(destReserve != address(0), \"dest reserve not found\");\n            dest = ERC20(destToken);\n\n            // buy destToken from destReserve\n            outTokenAmount = destReserve.exchange.value(msg.value)(true, msg.value);  // transfer ETH from Reserve to Exchange\n            assert(dest.allowance(address(destReserve), address(this)) >= outTokenAmount);  // check allowance\n            dest.transferFrom(address(destReserve), msg.sender, outTokenAmount);  // transfer destToken from Exchange to User\n        } else if (destToken == NATIVE_TOKEN_ADDRESS) { \n            require(msg.value == 0, \"msg.value != 0\");\n            require(srcReserve != address(0), \"src reserve not found\");\n            src = ERC20(srcToken);\n\n            // check allowance\n            require(src.allowance(msg.sender, address(this)) >= srcAmount, \"allowance not enough\");\n            src.transferFrom(msg.sender, address(this), srcAmount);  // receive srcToken from user\n            require(src.balanceOf(address(this)) >= srcAmount, \"balance not enough\");\n            src.approve(address(srcReserve), srcAmount);  // approve srcReserve to spend srcToken\n            sendBackEtherAmount = srcReserve.exchange(false, srcAmount);  // transfer srcToken from Exchange to Reserve\n\n            // forward ETH to User\n            msg.sender.transfer(sendBackEtherAmount);\n        } else if (srcReserve != address(0) && destReserve != address(0)) {\n            // srcToken and destToken are both not ETH\n            require(msg.value == 0, \"msg.value != 0\");\n            src = ERC20(srcToken);\n            dest = ERC20(destToken);\n\n            // sell srcToken to srcReserve\n            src.transferFrom(msg.sender, address(this), srcAmount);  // receive srcToken from user \n            src.approve(address(srcReserve), srcAmount);  // approve srcReserve to spend srcToken\n            sendBackEtherAmount = srcReserve.exchange(false, srcAmount);  // transfer srcToken from Exchange to Reserve\n            \n            // buy destToken from destReserve\n            outTokenAmount = destReserve.exchange.value(sendBackEtherAmount)(true, sendBackEtherAmount);  // transfer ETH from Reserve to Exchange\n            require(dest.allowance(address(destReserve), address(this)) >= outTokenAmount, \"not enough allowance\");  // check allowance\n            dest.transferFrom(address(destReserve), msg.sender, outTokenAmount);  // transfer destToken from Exchange to User\n        } else {\n            revert(\"reserve not found\");\n        }\n    }\n    function() external payable {}\n}\n",
  "sourcePath": "/home/thaiminhpv/Workspace/Code/blockchain/BDP306b/Blockchain-capstone-project/contracts/Exchange.sol",
  "compiler": {
    "name": "solc",
    "version": "0.4.26+commit.4563c3fc.Emscripten.clang"
  },
  "schemaVersion": "3.4.10",
  "updatedAt": "2022-11-17T06:52:21.923Z",
  "networkType": "ethereum",
  "devdoc": {
    "methods": {
      "addReserve(address,address,bool)": {
        "details": "Add or remove reserve for a token only owner can call this function",
        "params": {
          "isAdd": "true if add, false if remove",
          "reserve": "reserve address",
          "token": "supported token address"
        }
      },
      "exchange(address,address,uint256)": {
        "details": "Exchange tokens",
        "params": {
          "destToken": "destination token address",
          "srcAmount": "source amount",
          "srcToken": "source token address"
        }
      },
      "getExchangeRate(address,address,uint256)": {
        "details": "Get exchange rate * 1e18 between 2 tokens",
        "params": {
          "destToken": "destination token address",
          "srcAmount": "source amount",
          "srcToken": "source token address"
        },
        "return": "exchangeRate exchange rate * 10^18"
      }
    },
    "title": "Exchange"
  },
  "userdoc": {
    "methods": {}
  }
}